{
  "contractName": "MainContract",
  "abi": [
    {
      "inputs": [],
      "stateMutability": "nonpayable",
      "type": "constructor"
    },
    {
      "stateMutability": "nonpayable",
      "type": "fallback"
    },
    {
      "inputs": [],
      "name": "best_model_accuracy",
      "outputs": [
        {
          "internalType": "uint256",
          "name": "",
          "type": "uint256"
        }
      ],
      "stateMutability": "view",
      "type": "function"
    },
    {
      "inputs": [],
      "name": "best_submission_accuracy",
      "outputs": [
        {
          "internalType": "uint256",
          "name": "",
          "type": "uint256"
        }
      ],
      "stateMutability": "view",
      "type": "function"
    },
    {
      "inputs": [],
      "name": "best_submission_index",
      "outputs": [
        {
          "internalType": "uint256",
          "name": "",
          "type": "uint256"
        }
      ],
      "stateMutability": "view",
      "type": "function"
    },
    {
      "inputs": [],
      "name": "contract_terminated",
      "outputs": [
        {
          "internalType": "bool",
          "name": "",
          "type": "bool"
        }
      ],
      "stateMutability": "view",
      "type": "function"
    },
    {
      "inputs": [],
      "name": "evaluation_stage_block_size",
      "outputs": [
        {
          "internalType": "uint256",
          "name": "",
          "type": "uint256"
        }
      ],
      "stateMutability": "view",
      "type": "function"
    },
    {
      "inputs": [],
      "name": "future_predict_peroid",
      "outputs": [
        {
          "internalType": "uint256",
          "name": "",
          "type": "uint256"
        }
      ],
      "stateMutability": "view",
      "type": "function"
    },
    {
      "inputs": [],
      "name": "init1_block_height",
      "outputs": [
        {
          "internalType": "uint256",
          "name": "",
          "type": "uint256"
        }
      ],
      "stateMutability": "view",
      "type": "function"
    },
    {
      "inputs": [],
      "name": "init_level",
      "outputs": [
        {
          "internalType": "uint256",
          "name": "",
          "type": "uint256"
        }
      ],
      "stateMutability": "view",
      "type": "function"
    },
    {
      "inputs": [],
      "name": "model_accuracy_criteria",
      "outputs": [
        {
          "internalType": "uint256",
          "name": "",
          "type": "uint256"
        }
      ],
      "stateMutability": "view",
      "type": "function"
    },
    {
      "inputs": [],
      "name": "sequence_len",
      "outputs": [
        {
          "internalType": "uint256",
          "name": "",
          "type": "uint256"
        }
      ],
      "stateMutability": "view",
      "type": "function"
    },
    {
      "inputs": [],
      "name": "submission_stage_block_size",
      "outputs": [
        {
          "internalType": "uint256",
          "name": "",
          "type": "uint256"
        }
      ],
      "stateMutability": "view",
      "type": "function"
    },
    {
      "inputs": [],
      "name": "test_data_hash",
      "outputs": [
        {
          "internalType": "string",
          "name": "",
          "type": "string"
        }
      ],
      "stateMutability": "view",
      "type": "function"
    },
    {
      "inputs": [],
      "name": "use_train_data",
      "outputs": [
        {
          "internalType": "bool",
          "name": "",
          "type": "bool"
        }
      ],
      "stateMutability": "view",
      "type": "function"
    },
    {
      "stateMutability": "payable",
      "type": "receive"
    },
    {
      "inputs": [
        {
          "internalType": "uint256",
          "name": "accuracy_criteria",
          "type": "uint256"
        },
        {
          "internalType": "string[]",
          "name": "hashes",
          "type": "string[]"
        },
        {
          "internalType": "uint256",
          "name": "_sequence_len",
          "type": "uint256"
        },
        {
          "internalType": "uint256",
          "name": "_future_predict_peroid",
          "type": "uint256"
        }
      ],
      "name": "initialization",
      "outputs": [],
      "stateMutability": "nonpayable",
      "type": "function"
    },
    {
      "inputs": [],
      "name": "get_train_data",
      "outputs": [
        {
          "internalType": "string[]",
          "name": "",
          "type": "string[]"
        }
      ],
      "stateMutability": "nonpayable",
      "type": "function"
    },
    {
      "inputs": [],
      "name": "get_submission_queue_length",
      "outputs": [
        {
          "internalType": "uint256",
          "name": "",
          "type": "uint256"
        }
      ],
      "stateMutability": "view",
      "type": "function"
    },
    {
      "inputs": [
        {
          "internalType": "address",
          "name": "_submitter",
          "type": "address"
        },
        {
          "internalType": "uint256",
          "name": "_dense_layer",
          "type": "uint256"
        },
        {
          "internalType": "uint256",
          "name": "_layer_size",
          "type": "uint256"
        },
        {
          "internalType": "uint256",
          "name": "_lstm_layers",
          "type": "uint256"
        },
        {
          "internalType": "string",
          "name": "_activation_function",
          "type": "string"
        },
        {
          "internalType": "string",
          "name": "_loss_function",
          "type": "string"
        }
      ],
      "name": "submit_model",
      "outputs": [],
      "stateMutability": "nonpayable",
      "type": "function"
    },
    {
      "inputs": [
        {
          "internalType": "address",
          "name": "_submitter",
          "type": "address"
        },
        {
          "internalType": "uint256",
          "name": "_dense_layer",
          "type": "uint256"
        },
        {
          "internalType": "uint256",
          "name": "_layer_size",
          "type": "uint256"
        },
        {
          "internalType": "uint256",
          "name": "_lstm_layers",
          "type": "uint256"
        },
        {
          "internalType": "string",
          "name": "_activation_function",
          "type": "string"
        },
        {
          "internalType": "string",
          "name": "_loss_function",
          "type": "string"
        }
      ],
      "name": "get_submission_id",
      "outputs": [
        {
          "internalType": "int256",
          "name": "",
          "type": "int256"
        }
      ],
      "stateMutability": "view",
      "type": "function"
    },
    {
      "inputs": [],
      "name": "get_all_submissions",
      "outputs": [
        {
          "components": [
            {
              "internalType": "address",
              "name": "submitter",
              "type": "address"
            },
            {
              "internalType": "uint256",
              "name": "dense_layer",
              "type": "uint256"
            },
            {
              "internalType": "uint256",
              "name": "layer_size",
              "type": "uint256"
            },
            {
              "internalType": "uint256",
              "name": "lstm_layers",
              "type": "uint256"
            },
            {
              "internalType": "string",
              "name": "activation_function",
              "type": "string"
            },
            {
              "internalType": "string",
              "name": "loss_function",
              "type": "string"
            },
            {
              "internalType": "uint256",
              "name": "submission_time",
              "type": "uint256"
            }
          ],
          "internalType": "struct MainContract.Submission[]",
          "name": "",
          "type": "tuple[]"
        }
      ],
      "stateMutability": "view",
      "type": "function"
    },
    {
      "inputs": [
        {
          "internalType": "uint256",
          "name": "submission_accuracy",
          "type": "uint256"
        },
        {
          "internalType": "uint256",
          "name": "submission_index",
          "type": "uint256"
        }
      ],
      "name": "set_evaluation_metrics",
      "outputs": [],
      "stateMutability": "nonpayable",
      "type": "function"
    },
    {
      "inputs": [],
      "name": "cancel_contract",
      "outputs": [],
      "stateMutability": "nonpayable",
      "type": "function"
    },
    {
      "inputs": [],
      "name": "finalize_contract",
      "outputs": [],
      "stateMutability": "nonpayable",
      "type": "function"
    },
    {
      "inputs": [
        {
          "internalType": "string",
          "name": "a",
          "type": "string"
        },
        {
          "internalType": "string",
          "name": "b",
          "type": "string"
        }
      ],
      "name": "compareStrings",
      "outputs": [
        {
          "internalType": "bool",
          "name": "",
          "type": "bool"
        }
      ],
      "stateMutability": "pure",
      "type": "function"
    }
  ],
  "bytecode": "0x6080604052600060038190556006805460ff199081169091556203b100600a55619d80600b55600d91909155600f8054909116905534801561004057600080fd5b50600180546001600160a01b031916331790556119b7806100626000396000f3fe6080604052600436106101445760003560e01c806384b7dbdc116100b6578063a8f566001161006f578063a8f566001461032c578063b28cf30414610341578063bed34bba14610356578063d591e94914610376578063dfe7de7a1461038b578063ebaa32f3146103ab5761014b565b806384b7dbdc1461028957806385e5b390146102a957806387fad39c146102be57806389128b70146102e05780639efd33e7146102f5578063a7f8fbd4146103175761014b565b8063515ced5311610108578063515ced53146101fe57806366b7afbf146102135780636d48ae25146102285780637053fe8d1461023d578063764c499b146102525780637be2894b146102745761014b565b806302a3036d1461015a57806305311c2e146101855780630f301263146101a75780632e2a6488146101c7578063489ed5f4146101dc5761014b565b3661014b57005b34801561015757600080fd5b50005b34801561016657600080fd5b5061016f6103c0565b60405161017c91906115fe565b60405180910390f35b34801561019157600080fd5b506101a56101a03660046112b2565b6103c6565b005b3480156101b357600080fd5b506101a56101c2366004611465565b61057c565b3480156101d357600080fd5b5061016f6105de565b3480156101e857600080fd5b506101f16105e4565b60405161017c919061152e565b34801561020a57600080fd5b5061016f6107d1565b34801561021f57600080fd5b5061016f6107d7565b34801561023457600080fd5b5061016f6107dd565b34801561024957600080fd5b506101a56107e3565b34801561025e57600080fd5b50610267610aa1565b60405161017c91906115f3565b34801561028057600080fd5b50610267610aaa565b34801561029557600080fd5b5061016f6102a43660046112b2565b610ab3565b3480156102b557600080fd5b5061016f610d41565b3480156102ca57600080fd5b506102d3610d47565b60405161017c91906114ce565b3480156102ec57600080fd5b5061016f610e67565b34801561030157600080fd5b5061030a610e6d565b60405161017c9190611607565b34801561032357600080fd5b506101a5610efb565b34801561033857600080fd5b5061016f610fa3565b34801561034d57600080fd5b5061016f610fa9565b34801561036257600080fd5b5061026761037136600461134c565b610faf565b34801561038257600080fd5b5061016f611008565b34801561039757600080fd5b506101a56103a63660046113ad565b61100e565b3480156103b757600080fd5b5061016f6110f3565b600c5481565b600f5460ff16156103f25760405162461bcd60e51b81526004016103e9906116e3565b60405180910390fd5b600d546001146104145760405162461bcd60e51b81526004016103e990611621565b6040805160e0810182526001600160a01b0388811682526020808301898152938301888152606084018881526080850188815260a086018890524260c0870152600e805460018101825560009190915286517fbb7b4a454dc3493923482f07822329ed19e8244eff582cc204f8554c3620c3fd600790920291820180546001600160a01b0319169190971617865596517fbb7b4a454dc3493923482f07822329ed19e8244eff582cc204f8554c3620c3fe88015591517fbb7b4a454dc3493923482f07822329ed19e8244eff582cc204f8554c3620c3ff870155517fbb7b4a454dc3493923482f07822329ed19e8244eff582cc204f8554c3620c4008601555180519394929361054b937fbb7b4a454dc3493923482f07822329ed19e8244eff582cc204f8554c3620c401019291909101906110f9565b5060a082015180516105679160058401916020909101906110f9565b5060c082015181600601555050505050505050565b6001546001600160a01b031633146105a65760405162461bcd60e51b81526004016103e99061177c565b6003548211156105bb57600281905560038290555b6003548214156105da576002548110156105da57600281905560038290555b5050565b600b5481565b6001546060906001600160a01b031633146106115760405162461bcd60e51b81526004016103e99061177c565b600e805480602002602001604051908101604052809291908181526020016000905b828210156107c85760008481526020908190206040805160e0810182526007860290920180546001600160a01b031683526001810154938301939093526002830154908201526003820154606082015260048201805491929160808401919061069b90611909565b80601f01602080910402602001604051908101604052809291908181526020018280546106c790611909565b80156107145780601f106106e957610100808354040283529160200191610714565b820191906000526020600020905b8154815290600101906020018083116106f757829003601f168201915b5050505050815260200160058201805461072d90611909565b80601f016020809104026020016040519081016040528092919081815260200182805461075990611909565b80156107a65780601f1061077b576101008083540402835291602001916107a6565b820191906000526020600020905b81548152906001019060200180831161078957829003601f168201915b5050505050815260200160068201548152505081526020019060010190610633565b50505050905090565b60025481565b600d5481565b60035481565b6001546001600160a01b0316331461080d5760405162461bcd60e51b81526004016103e99061177c565b600f5460ff16156108305760405162461bcd60e51b81526004016103e9906116e3565b600d546001146108525760405162461bcd60e51b81526004016103e990611621565b6000600e6002548154811061087757634e487b7160e01b600052603260045260246000fd5b90600052602060002090600702016040518060e00160405290816000820160009054906101000a90046001600160a01b03166001600160a01b03166001600160a01b031681526020016001820154815260200160028201548152602001600382015481526020016004820180546108ed90611909565b80601f016020809104026020016040519081016040528092919081815260200182805461091990611909565b80156109665780601f1061093b57610100808354040283529160200191610966565b820191906000526020600020905b81548152906001019060200180831161094957829003601f168201915b5050505050815260200160058201805461097f90611909565b80601f01602080910402602001604051908101604052809291908181526020018280546109ab90611909565b80156109f85780601f106109cd576101008083540402835291602001916109f8565b820191906000526020600020905b8154815290600101906020018083116109db57829003601f168201915b50505050508152602001600682015481525050905060055460035410610a565780516040516001600160a01b03909116904780156108fc02916000818181858888f19350505050158015610a50573d6000803e3d6000fd5b50610a91565b6001546040516001600160a01b03909116904780156108fc02916000818181858888f19350505050158015610a8f573d6000803e3d6000fd5b505b50600f805460ff19166001179055565b600f5460ff1681565b60065460ff1681565b600e54600090815b81811015610d1e576000600e8281548110610ae657634e487b7160e01b600052603260045260246000fd5b90600052602060002090600702016040518060e00160405290816000820160009054906101000a90046001600160a01b03166001600160a01b03166001600160a01b03168152602001600182015481526020016002820154815260200160038201548152602001600482018054610b5c90611909565b80601f0160208091040260200160405190810160405280929190818152602001828054610b8890611909565b8015610bd55780601f10610baa57610100808354040283529160200191610bd5565b820191906000526020600020905b815481529060010190602001808311610bb857829003601f168201915b50505050508152602001600582018054610bee90611909565b80601f0160208091040260200160405190810160405280929190818152602001828054610c1a90611909565b8015610c675780601f10610c3c57610100808354040283529160200191610c67565b820191906000526020600020905b815481529060010190602001808311610c4a57829003601f168201915b505050505081526020016006820154815250509050896001600160a01b031681600001516001600160a01b031614610c9f5750610d0c565b88816020015114610cb05750610d0c565b87816040015114610cc15750610d0c565b86816060015114610cd25750610d0c565b610ce0816080015187610faf565b610cea5750610d0c565b610cf88160a0015186610faf565b610d025750610d0c565b509150610d379050565b80610d1681611944565b915050610abb565b5060405162461bcd60e51b81526004016103e990611732565b9695505050505050565b60075481565b600f5460609060ff1615610d6d5760405162461bcd60e51b81526004016103e9906116e3565b600d54600114610d8f5760405162461bcd60e51b81526004016103e990611621565b6006805460ff191660011790556000805460408051602080840282018101909252828152929190829084015b828210156107c8578382906000526020600020018054610dda90611909565b80601f0160208091040260200160405190810160405280929190818152602001828054610e0690611909565b8015610e535780601f10610e2857610100808354040283529160200191610e53565b820191906000526020600020905b815481529060010190602001808311610e3657829003601f168201915b505050505081526020019060010190610dbb565b600e5490565b60098054610e7a90611909565b80601f0160208091040260200160405190810160405280929190818152602001828054610ea690611909565b8015610ef35780601f10610ec857610100808354040283529160200191610ef3565b820191906000526020600020905b815481529060010190602001808311610ed657829003601f168201915b505050505081565b6001546001600160a01b03163314610f255760405162461bcd60e51b81526004016103e99061177c565b600f5460ff1615610f485760405162461bcd60e51b81526004016103e9906116e3565b6001600d5410610f6a5760405162461bcd60e51b81526004016103e990611674565b6001546040516001600160a01b03909116904780156108fc02916000818181858888f19350505050158015610a91573d6000803e3d6000fd5b60055481565b60045481565b600081604051602001610fc291906114b2565b6040516020818303038152906040528051906020012083604051602001610fe991906114b2565b6040516020818303038152906040528051906020012014905092915050565b60085481565b6001546001600160a01b031633146110385760405162461bcd60e51b81526004016103e99061177c565b600f5460ff161561105b5760405162461bcd60e51b81526004016103e9906116e3565b600d541561107b5760405162461bcd60e51b81526004016103e990611810565b600083511161109c5760405162461bcd60e51b81526004016103e9906117cb565b82516110af90600090602086019061117d565b506006805460ff1916600190811790915543600c55600d55836110e45760405162461bcd60e51b81526004016103e990611865565b60059390935560075550600855565b600a5481565b82805461110590611909565b90600052602060002090601f016020900481019282611127576000855561116d565b82601f1061114057805160ff191683800117855561116d565b8280016001018555821561116d579182015b8281111561116d578251825591602001919060010190611152565b506111799291506111d6565b5090565b8280548282559060005260206000209081019282156111ca579160200282015b828111156111ca57825180516111ba9184916020909101906110f9565b509160200191906001019061119d565b506111799291506111eb565b5b8082111561117957600081556001016111d7565b808211156111795760006111ff8282611208565b506001016111eb565b50805461121490611909565b6000825580601f106112265750611244565b601f01602090049060005260206000209081019061124491906111d6565b50565b600082601f830112611257578081fd5b813567ffffffffffffffff8111156112715761127161196b565b611284601f8201601f19166020016118af565b818152846020838601011115611298578283fd5b816020850160208301379081016020019190915292915050565b60008060008060008060c087890312156112ca578182fd5b86356001600160a01b03811681146112e0578283fd5b9550602087013594506040870135935060608701359250608087013567ffffffffffffffff80821115611311578384fd5b61131d8a838b01611247565b935060a0890135915080821115611332578283fd5b5061133f89828a01611247565b9150509295509295509295565b6000806040838503121561135e578182fd5b823567ffffffffffffffff80821115611375578384fd5b61138186838701611247565b93506020850135915080821115611396578283fd5b506113a385828601611247565b9150509250929050565b600080600080608085870312156113c2578384fd5b8435935060208086013567ffffffffffffffff808211156113e1578586fd5b818801915088601f8301126113f4578586fd5b8135818111156114065761140661196b565b61141384858302016118af565b8181528481019250838501885b83811015611449576114378d888435890101611247565b85529386019390860190600101611420565b50989b909a5060408a0135996060013598509650505050505050565b60008060408385031215611477578182fd5b50508035926020909101359150565b6000815180845261149e8160208601602086016118d9565b601f01601f19169290920160200192915050565b600082516114c48184602087016118d9565b9190910192915050565b6000602080830181845280855180835260408601915060408482028701019250838701855b8281101561152157603f1988860301845261150f858351611486565b945092850192908501906001016114f3565b5092979650505050505050565b60208082528251828201819052600091906040908185019080840286018301878501865b838110156115e557888303603f19018552815180516001600160a01b03168452878101518885015286810151878501526060808201519085015260808082015160e082870181905291906115a883880182611486565b9250505060a080830151868303828801526115c38382611486565b60c0948501519790940196909652505094870194925090860190600101611552565b509098975050505050505050565b901515815260200190565b90815260200190565b60006020825261161a6020830184611486565b9392505050565b60208082526033908201527f4d61696e436f6e74726163743a20436f6e747261637420686173206e6f74206260408201527219595b881a5b9a5d1a585b1a5e9959081e595d606a1b606082015260800190565b60208082526049908201527f4d61696e436f6e74726163743a20436f6e74726163742063616e206f6e6c792060408201527f62652063616e63656c6c656420696620696e697469616c697a6174696f6e2068606082015268185cc819985a5b195960ba1b608082015260a00190565b6020808252602f908201527f4d61696e436f6e74726163743a205468697320636f6e7472616374206861732060408201526e1899595b881d195c9b5a5b985d1959608a1b606082015260800190565b6020808252602a908201527f4d61696e436f6e74726163743a204d6f64656c20686164206e6f74206265656e604082015269081cdd589b5a5d1d195960b21b606082015260800190565b6020808252602f908201527f4d61696e436f6e74726163743a204f6e6c79206f776e65722063616e2063616c60408201526e36103a3434b990333ab731ba34b7b760891b606082015260800190565b60208082526025908201527f4d61696e436f6e74726163743a20495046532068617368657320617265206d696040820152647373696e6760d81b606082015260800190565b60208082526035908201527f4d61696e436f6e74726163743a20496e636f7272656374206f72646572206f666040820152741031b0b63634b733903a343290333ab731ba34b7b760591b606082015260800190565b6020808252602a908201527f4d61696e436f6e74726163743a204163637275616379206d757374206265206d60408201526906f7265207468616e20360b41b606082015260800190565b60405181810167ffffffffffffffff811182821017156118d1576118d161196b565b604052919050565b60005b838110156118f45781810151838201526020016118dc565b83811115611903576000848401525b50505050565b60028104600182168061191d57607f821691505b6020821081141561193e57634e487b7160e01b600052602260045260246000fd5b50919050565b600060001982141561196457634e487b7160e01b81526011600452602481fd5b5060010190565b634e487b7160e01b600052604160045260246000fdfea2646970667358221220555b46e1e677480e4cdb13b0771a1320c0bf47a3473d7bd2c9bccfd10f1a23af64736f6c63430008000033",
  "immutableReferences": {},
  "source": "// SPDX-License-Identifier: MIT\npragma solidity >=0.4.21 <8.10.0;\npragma experimental ABIEncoderV2;\n\n\ncontract MainContract {\n\n  string [] ipfsHash;\n  address owner;   //organizer\n  uint public best_submission_index;\n  uint public best_submission_accuracy = 0;\n  uint public best_model_accuracy;\n  uint public model_accuracy_criteria;\n  bool public use_train_data = false;\n  // bool public use_test_data = false;\n  uint public sequence_len;\n  uint public future_predict_peroid;\n  string public test_data_hash;\n\n  // Deadline for submitting solutions in terms of block size\n  uint public submission_stage_block_size = 241920; //6 week time frame\n  // Deadline for revealing the testing dataset\n  // uint public reveal_test_data_groups_block_size = 17280; // 3 days time frame\n  // Deadline for evaluating the submissions\n  uint public evaluation_stage_block_size = 40320; // 7 day time frame\n  uint public init1_block_height;\n  // uint public init3_block_height;\n  uint public init_level = 0;\n  int constant int_precision = 10000;\n\n  struct Submission{\n    address submitter;\n    uint dense_layer;\n    uint layer_size;\n    uint lstm_layers;\n    string activation_function;\n    string loss_function;\n    uint submission_time;\n  }\n\n  Submission[] submission_queue;\n  bool public contract_terminated = false;\n\n  constructor() {\n    owner = msg.sender;\n  }\n\n  modifier onlyOwner {\n    require(owner == msg.sender, 'MainContract: Only owner can call this function');\n    _ ;\n  }\n  \n  function initialization(uint accuracy_criteria, \n                          string[] memory hashes, \n                          uint _sequence_len, \n                          uint _future_predict_peroid) onlyOwner external{\n\n    //Make sure that the contract is not terminated\n    require(contract_terminated == false, 'MainContract: This contract has been terminated');\n\n    //Make sure that this is called in order\n    require(init_level == 0, 'MainContract: Incorrect order of calling the function');\n    require(hashes.length > 0, 'MainContract: IPFS hashes are missing');\n\n    ipfsHash = hashes;\n    use_train_data = true;\n    init1_block_height = block.number;\n    init_level = 1;\n\n    require(accuracy_criteria > 0, 'MainContract: Accruacy must be more than 0');\n    //100% => 10,000 => 1 * 10,000\n    model_accuracy_criteria = accuracy_criteria;\n    \n    sequence_len = _sequence_len;\n    future_predict_peroid = _future_predict_peroid;\n\n  }\n\n  function get_train_data() public returns(string[] memory){\n    require(contract_terminated == false,'MainContract: This contract has been terminated');\n    require(init_level == 1, 'MainContract: Contract has not been initialized yet');\n    //Make sure the initialization function is called first\n    //require(block.number > init1_block_height, 'MainContract: Train data is not set yet');\n    use_train_data = true;\n    return  ipfsHash;\n  }\n\n  function get_submission_queue_length() public view returns(uint) {\n    return submission_queue.length;\n  }\n  \n  function submit_model(address _submitter,\n                        uint _dense_layer,\n                        uint _layer_size,\n                        uint _lstm_layers,\n                        string memory _activation_function,\n                        string memory _loss_function) public{\n\n    //Make sure that the contract is not terminated\n    require(contract_terminated == false, 'MainContract: This contract has been terminated');\n    require(init_level == 1, 'MainContract: Contract has not been initialized yet');\n    //require(block.number < init1_block_height + submission_stage_block_size, 'MainContract: Submission stage is over');\n    \n    submission_queue.push(Submission(\n                          _submitter,\n                          _dense_layer,\n                          _layer_size,\n                          _lstm_layers,\n                          _activation_function,\n                          _loss_function,\n                          block.timestamp\n                        ));\n  }\n\n  function get_submission_id(address _submitter,\n                        uint _dense_layer,\n                        uint _layer_size,\n                        uint _lstm_layers,\n                        string memory _activation_function,\n                        string memory _loss_function) public view returns(int){\n    \n    uint queue_length = submission_queue.length;\n\n    for(uint i = 0 ; i < queue_length ; i++){\n        Submission memory model =  submission_queue[i];\n\n        if(model.submitter != _submitter){\n          continue;\n        }\n        if(model.dense_layer != _dense_layer){\n          continue;\n        }\n        if(model.layer_size != _layer_size){\n          continue;\n        }\n        if(model.lstm_layers != _lstm_layers){\n          continue;\n        }\n        if(!compareStrings(model.activation_function, _activation_function)){\n          continue;\n        }\n        if(!compareStrings(model.loss_function, _loss_function)){\n          continue;\n        }\n\n        return int(i);\n    }\n    require(false,'MainContract: Model had not been submitted');\n    return(-1);\n  }\n\n  // function reveal_test_data(string memory _hash) external onlyOwner{\n  //   require(contract_terminated == false,'MainContract: This contract has been terminated');\n  //   require(init_level == 1, 'MainContract: Contract has not been initialized yet');\n  //   //Make sure that the test data is revealed after the submission stage\n  //   //assert(block.number < init1_block_height + submission_stage_block_size + reveal_test_data_groups_block_size);\n  //   test_data_hash = _hash;\n  //   use_test_data = true;\n  // }\n\n  // function get_test_data() public view returns(string memory){\n  //   require(contract_terminated == false,'MainContract: This contract has been terminated');\n  //   require(init_level == 1, 'MainContract: Contract has not been initialized yet');\n  //   require(use_test_data == true, 'MainContract: Test data is not revealed yet');\n\n  //   return test_data_hash;\n  // }\n  function get_all_submissions() onlyOwner view external returns(Submission [] memory){\n      return submission_queue;\n  }\n\n  function set_evaluation_metrics(uint submission_accuracy,uint submission_index) external onlyOwner{\n   //assert(block.number >= init1_block_height + submission_stage_block_size );\n\n   //Keep track of the most acurate model\n   if(submission_accuracy > best_submission_accuracy){\n      best_submission_index = submission_index;\n      best_submission_accuracy = submission_accuracy;\n   }\n\n   if(submission_accuracy == best_submission_accuracy){\n     if (submission_index < best_submission_index) {\n        best_submission_index = submission_index;\n        best_submission_accuracy = submission_accuracy;\n      }\n   }\n\n  }\n\n  function cancel_contract() external onlyOwner{\n    require(contract_terminated == false, 'MainContract: This contract has been terminated');\n    require(init_level < 1, 'MainContract: Contract can only be cancelled if initialization has failed');\n    // Refund remaining balance to organizer\n    payable(owner).transfer(address(this).balance);\n    // Terminate contract\n    contract_terminated = true;\n\n  }\n\n  function finalize_contract() external onlyOwner{\n    require(contract_terminated == false, 'MainContract: This contract has been terminated');\n    require(init_level == 1, 'MainContract: Contract has not been initialized yet');\n    //Make sure contract is finalized after the evaluation stage\n    //assert(block.number >= init1_block_height + submission_stage_block_size + evaluation_stage_block_size);\n    Submission memory best_submission = submission_queue[best_submission_index];\n    // If best submission passes criteria, payout to the submitter\n    if (best_submission_accuracy >= model_accuracy_criteria) {\n      payable(best_submission.submitter).transfer(address(this).balance);\n    // If the best submission fails the criteria, refund the balance back to the organizer\n    } \n    else {\n      payable(owner).transfer(address(this).balance);\n    }\n\n    contract_terminated = true;\n  } \n\n  function compareStrings(string memory a, string memory b) public pure returns (bool) {\n    return (keccak256(abi.encodePacked((a))) == keccak256(abi.encodePacked((b))));\n  }\n\n  receive() external payable {\n  }\n\n  fallback() external{\n  }\n}\n",
  "sourcePath": "D:/BlockChain/Ethereum-201/ProjectFourthSem/contracts/MainContract.sol",
  "compiler": {
    "name": "solc",
    "version": "0.8.0+commit.c7dfd78e.Emscripten.clang"
  },
  "schemaVersion": "3.4.1",
  "updatedAt": "2022-05-08T17:12:03.313Z",
  "devdoc": {
    "kind": "dev",
    "methods": {},
    "version": 1
  },
  "userdoc": {
    "kind": "user",
    "methods": {},
    "version": 1
  }
}